:060000000A128A110C280F
:10000800FE00030EF1000A08F2000A128A115228B3
:100018000A128A110F28F30183010A128A1178281B
:10002800183083160313870083120313871283166D
:1000380003130F088F3940388F000F1483160317E6
:100048008801890120308316031385000330860058
:1000580088018312031385018601870188018B17A4
:100068008B150B108316031316149614811315148D
:100078009514831203131408F039043894001412E9
:1000880094168316031314179413831203138C11F5
:10009800831603138C158B170B1708000B1C552898
:1000A800562868288312031306185B285C286128E1
:1000B8000130F0007008F30767288618642865285F
:1000C80067280130F3020B10831203138C1D6D286F
:1000D8006E287128730893008C1172088A00710EBB
:1000E8008300FE0E7E0E09000A128A1114200A12DD
:0A00F8008A117D280A128A110C28D3
:08400000FF3FFF3FFF3FFF3FC0
:04400E00D420FF3F7C
:00000001FF
